{
  "contractName": "CrossChainContract",
  "abi": [
    {
      "anonymous": false,
      "inputs": [
        {
          "indexed": false,
          "internalType": "string",
          "name": "operation",
          "type": "string"
        },
        {
          "indexed": false,
          "internalType": "address",
          "name": "from",
          "type": "address"
        },
        {
          "indexed": false,
          "internalType": "uint256",
          "name": "value",
          "type": "uint256"
        }
      ],
      "name": "AssetBurnEvent",
      "type": "event"
    },
    {
      "anonymous": false,
      "inputs": [
        {
          "indexed": false,
          "internalType": "string",
          "name": "operation",
          "type": "string"
        },
        {
          "indexed": false,
          "internalType": "address",
          "name": "from",
          "type": "address"
        },
        {
          "indexed": false,
          "internalType": "address",
          "name": "to",
          "type": "address"
        },
        {
          "indexed": false,
          "internalType": "uint256",
          "name": "value",
          "type": "uint256"
        }
      ],
      "name": "AssetMintEvent",
      "type": "event"
    },
    {
      "anonymous": false,
      "inputs": [
        {
          "indexed": false,
          "internalType": "string",
          "name": "operation",
          "type": "string"
        },
        {
          "indexed": false,
          "internalType": "uint256",
          "name": "value",
          "type": "uint256"
        }
      ],
      "name": "approveEvent",
      "type": "event"
    },
    {
      "anonymous": false,
      "inputs": [
        {
          "indexed": false,
          "internalType": "string",
          "name": "operation",
          "type": "string"
        },
        {
          "indexed": false,
          "internalType": "string",
          "name": "cross_TxNo",
          "type": "string"
        },
        {
          "indexed": false,
          "internalType": "uint8",
          "name": "txType",
          "type": "uint8"
        }
      ],
      "name": "sendAckedEvent",
      "type": "event"
    },
    {
      "anonymous": false,
      "inputs": [
        {
          "indexed": false,
          "internalType": "string",
          "name": "operation",
          "type": "string"
        },
        {
          "indexed": false,
          "internalType": "string",
          "name": "cross_TxNo",
          "type": "string"
        },
        {
          "indexed": false,
          "internalType": "uint8",
          "name": "txType",
          "type": "uint8"
        }
      ],
      "name": "sendTxEvent",
      "type": "event"
    },
    {
      "anonymous": false,
      "inputs": [
        {
          "indexed": false,
          "internalType": "string",
          "name": "operation",
          "type": "string"
        },
        {
          "indexed": false,
          "internalType": "string",
          "name": "chain_Code",
          "type": "string"
        }
      ],
      "name": "setChainCodeEvent",
      "type": "event"
    },
    {
      "anonymous": false,
      "inputs": [
        {
          "indexed": false,
          "internalType": "string",
          "name": "operation",
          "type": "string"
        },
        {
          "indexed": false,
          "internalType": "address",
          "name": "gateway_Address",
          "type": "address"
        }
      ],
      "name": "setGatewayEvent",
      "type": "event"
    },
    {
      "anonymous": false,
      "inputs": [
        {
          "indexed": false,
          "internalType": "string",
          "name": "operation",
          "type": "string"
        },
        {
          "indexed": false,
          "internalType": "string",
          "name": "cross_TxNo",
          "type": "string"
        },
        {
          "indexed": false,
          "internalType": "uint8",
          "name": "txType",
          "type": "uint8"
        }
      ],
      "name": "startTxEvent",
      "type": "event"
    },
    {
      "anonymous": false,
      "inputs": [
        {
          "indexed": false,
          "internalType": "string",
          "name": "operation",
          "type": "string"
        },
        {
          "indexed": false,
          "internalType": "address",
          "name": "to",
          "type": "address"
        }
      ],
      "name": "takeOutEvent",
      "type": "event"
    },
    {
      "anonymous": false,
      "inputs": [
        {
          "indexed": false,
          "internalType": "string",
          "name": "operation",
          "type": "string"
        },
        {
          "indexed": false,
          "internalType": "uint256",
          "name": "value",
          "type": "uint256"
        }
      ],
      "name": "transferEvent",
      "type": "event"
    },
    {
      "inputs": [
        {
          "internalType": "address",
          "name": "crossChainAdd",
          "type": "address"
        }
      ],
      "name": "initialize",
      "outputs": [],
      "stateMutability": "nonpayable",
      "type": "function"
    },
    {
      "inputs": [
        {
          "internalType": "string",
          "name": "chainCode",
          "type": "string"
        }
      ],
      "name": "setChainCode",
      "outputs": [],
      "stateMutability": "nonpayable",
      "type": "function"
    },
    {
      "inputs": [
        {
          "internalType": "address",
          "name": "gatewayAddress",
          "type": "address"
        }
      ],
      "name": "setGateway",
      "outputs": [],
      "stateMutability": "nonpayable",
      "type": "function"
    },
    {
      "inputs": [
        {
          "internalType": "address",
          "name": "from",
          "type": "address"
        },
        {
          "internalType": "address",
          "name": "to",
          "type": "address"
        },
        {
          "internalType": "uint256",
          "name": "value",
          "type": "uint256"
        }
      ],
      "name": "approve",
      "outputs": [],
      "stateMutability": "nonpayable",
      "type": "function"
    },
    {
      "inputs": [
        {
          "internalType": "address",
          "name": "owner",
          "type": "address"
        },
        {
          "internalType": "address",
          "name": "spender",
          "type": "address"
        }
      ],
      "name": "getAllowance",
      "outputs": [
        {
          "internalType": "uint256",
          "name": "",
          "type": "uint256"
        }
      ],
      "stateMutability": "view",
      "type": "function",
      "constant": true
    },
    {
      "inputs": [
        {
          "internalType": "address",
          "name": "srcAddress",
          "type": "address"
        },
        {
          "internalType": "string",
          "name": "destBid",
          "type": "string"
        },
        {
          "internalType": "string",
          "name": "srcChainCode",
          "type": "string"
        },
        {
          "internalType": "string",
          "name": "destChainCode",
          "type": "string"
        },
        {
          "internalType": "uint8",
          "name": "txType",
          "type": "uint8"
        },
        {
          "internalType": "bytes",
          "name": "payload",
          "type": "bytes"
        },
        {
          "internalType": "string",
          "name": "extension",
          "type": "string"
        },
        {
          "internalType": "string",
          "name": "remark",
          "type": "string"
        },
        {
          "internalType": "string",
          "name": "version",
          "type": "string"
        }
      ],
      "name": "startTx",
      "outputs": [],
      "stateMutability": "payable",
      "type": "function",
      "payable": true
    },
    {
      "inputs": [
        {
          "internalType": "string",
          "name": "srcBid",
          "type": "string"
        },
        {
          "internalType": "address payable",
          "name": "destAddress",
          "type": "address"
        },
        {
          "internalType": "string",
          "name": "srcChainCode",
          "type": "string"
        },
        {
          "internalType": "string",
          "name": "destChainCode",
          "type": "string"
        },
        {
          "internalType": "uint8",
          "name": "txType",
          "type": "uint8"
        },
        {
          "internalType": "string",
          "name": "crossTxNo",
          "type": "string"
        },
        {
          "internalType": "bytes",
          "name": "payload",
          "type": "bytes"
        },
        {
          "internalType": "string",
          "name": "extension",
          "type": "string"
        },
        {
          "internalType": "string",
          "name": "remark",
          "type": "string"
        },
        {
          "internalType": "string",
          "name": "version",
          "type": "string"
        },
        {
          "internalType": "bytes",
          "name": "proof",
          "type": "bytes"
        }
      ],
      "name": "sendTx",
      "outputs": [],
      "stateMutability": "payable",
      "type": "function",
      "payable": true
    },
    {
      "inputs": [
        {
          "internalType": "string",
          "name": "crossTxNo",
          "type": "string"
        },
        {
          "internalType": "enum Storage.TxResultEnum",
          "name": "result",
          "type": "uint8"
        },
        {
          "internalType": "string",
          "name": "version",
          "type": "string"
        },
        {
          "internalType": "bytes",
          "name": "proof",
          "type": "bytes"
        }
      ],
      "name": "sendAcked",
      "outputs": [],
      "stateMutability": "nonpayable",
      "type": "function"
    },
    {
      "inputs": [
        {
          "internalType": "string",
          "name": "crossTxNo",
          "type": "string"
        },
        {
          "internalType": "address payable",
          "name": "to",
          "type": "address"
        }
      ],
      "name": "takeOut",
      "outputs": [],
      "stateMutability": "nonpayable",
      "type": "function"
    },
    {
      "inputs": [
        {
          "internalType": "address",
          "name": "to",
          "type": "address"
        },
        {
          "internalType": "uint256",
          "name": "value",
          "type": "uint256"
        }
      ],
      "name": "transfer",
      "outputs": [],
      "stateMutability": "nonpayable",
      "type": "function"
    },
    {
      "inputs": [
        {
          "internalType": "string",
          "name": "crossTxNo",
          "type": "string"
        }
      ],
      "name": "getCrossTx",
      "outputs": [
        {
          "internalType": "bytes",
          "name": "",
          "type": "bytes"
        },
        {
          "internalType": "bytes",
          "name": "",
          "type": "bytes"
        },
        {
          "internalType": "enum Storage.TxResultEnum",
          "name": "",
          "type": "uint8"
        },
        {
          "internalType": "enum Storage.TxRefundedEnum",
          "name": "",
          "type": "uint8"
        },
        {
          "internalType": "enum Storage.TxOriginEnum",
          "name": "",
          "type": "uint8"
        },
        {
          "internalType": "bytes",
          "name": "",
          "type": "bytes"
        },
        {
          "internalType": "bytes",
          "name": "",
          "type": "bytes"
        },
        {
          "internalType": "bytes",
          "name": "",
          "type": "bytes"
        }
      ],
      "stateMutability": "view",
      "type": "function",
      "constant": true
    },
    {
      "inputs": [
        {
          "internalType": "address",
          "name": "addr",
          "type": "address"
        }
      ],
      "name": "balanceOf",
      "outputs": [
        {
          "internalType": "uint256",
          "name": "",
          "type": "uint256"
        }
      ],
      "stateMutability": "view",
      "type": "function",
      "constant": true
    },
    {
      "inputs": [],
      "name": "getVersion",
      "outputs": [
        {
          "internalType": "string",
          "name": "",
          "type": "string"
        }
      ],
      "stateMutability": "view",
      "type": "function",
      "constant": true
    }
  ],
  "bytecode": "0x608060405234801561001057600080fd5b506152fd806100206000396000f3fe6080604052600436106100d25760003560e01c806370a082311161007f578063c4d66de811610059578063c4d66de8146101f7578063e1f21c6714610217578063eca33be714610237578063f8b8042d14610252576100d2565b806370a082311461019757806390646b4a146101b7578063a9059cbb146101d7576100d2565b806342037c61116100b057806342037c611461014457806347566a82146101645780635a900d3c14610184576100d2565b80630af4187d146100d75780630d8e6e2c1461010d5780632de666531461012f575b600080fd5b3480156100e357600080fd5b506100f76100f23660046142f2565b610286565b604051610104919061496e565b60405180910390f35b34801561011957600080fd5b50610122610318565b6040516101049190614b0d565b61014261013d36600461454c565b6103af565b005b34801561015057600080fd5b5061014261015f36600461475b565b610823565b34801561017057600080fd5b5061014261017f366004614507565b6114e4565b61014261019236600461436a565b6120a2565b3480156101a357600080fd5b506100f76101b23660046142d6565b61247f565b3480156101c357600080fd5b506101426101d23660046142d6565b6124c6565b3480156101e357600080fd5b506101426101f23660046144a1565b6124fb565b34801561020357600080fd5b506101426102123660046142d6565b612507565b34801561022357600080fd5b5061014261023236600461432a565b61259a565b34801561024357600080fd5b506101426101d23660046144cc565b34801561025e57600080fd5b5061027261026d3660046144cc565b6125a7565b604051610104989796959493929190614a6c565b60006001600160a01b038316158015906102a857506001600160a01b03821615155b6102cd5760405162461bcd60e51b81526004016102c490614d6a565b60405180910390fd5b60006007600085856040516020016102e6929190614947565b604051602081830303815290604052805190602001208152602001908152602001600020549050809150505b92915050565b60048054604080516020601f60026000196101006001881615020190951694909404938401819004810282018101909252828152606093909290918301828280156103a45780601f10610379576101008083540402835291602001916103a4565b820191906000526020600020905b81548152906001019060200180831161038757829003601f168201915b505050505090505b90565b6103b7612e66565b6103d35760405162461bcd60e51b81526004016102c490614f63565b6001600160a01b038a166103f95760405162461bcd60e51b81526004016102c490614d6a565b8160405160200161040a91906149c0565b60405160208183030381529060405280519060200120600460405160200161043291906149dc565b60405160208183030381529060405280519060200120146104655760405162461bcd60e51b81526004016102c49061501b565b60ff8716158061047857508660ff166001145b8061048657508660ff166002145b6104a25760405162461bcd60e51b81526004016102c490614c16565b60606104ad8b612ec0565b90506104b76140ce565b6104c88d838d8d8d8c60018f613085565b610140810187905260e081018690526101a08101859052905060ff89166104f8576104f38c88613161565b610524565b8860ff166001141561050e576104f38c88613183565b8860ff1660021415610524576105248c886131fa565b600060608480602001905181019061053c919061480f565b9150915061054861415d565b6040518060600160405280848152602001838152602001336001600160a01b031681525090508084610160018190525083600560008d60405160200161058e91906149c0565b60405160208183030381529060405280519060200120815260200190815260200160002060008201518160000190805190602001906105ce929190614187565b5060208281015180516105e79260018501920190614187565b5060408201518051610603916002840191602090910190614187565b506060820151805161061f916003840191602090910190614187565b506080820151805161063b916004840191602090910190614187565b5060a082015160058201805460ff191660ff90921691909117905560c08201518051610671916006840191602090910190614187565b5060e0820151805161068d916007840191602090910190614187565b5061010082015160088201805460ff191660018360038111156106ac57fe5b021790555061012082015160088201805461ff0019166101008360028111156106d157fe5b021790555061014082015180516106f2916009840191602090910190614187565b506101608201518051600a8301908155602080830151805161071a92600b8701920190614187565b5060409190910151600290910180546001600160a01b0319166001600160a01b039092169190911790556101808201518051600d8301908155602080830151805161076b92600e8701920190614187565b5060409190910151600290910180546001600160a01b0319166001600160a01b039092169190911790556101a082015180516107b1916010840191602090910190614187565b506101c082015160118201805460ff191660018360028111156107d057fe5b02179055509050507fb03cbff5de7f38c07d0c4e60ffb200c548db20948f548306ffdc15e77f9f889e8b8d604051610809929190614ca5565b60405180910390a150505050505050505050505050505050565b61082b612e66565b6108475760405162461bcd60e51b81526004016102c490614f63565b600183600381111561085557fe5b148061086c5750600283600381111561086a57fe5b145b806108825750600383600381111561088057fe5b145b61089e5760405162461bcd60e51b81526004016102c490614fe4565b816040516020016108af91906149c0565b6040516020818303038152906040528051906020012060046040516020016108d791906149dc565b604051602081830303815290604052805190602001201461090a5760405162461bcd60e51b81526004016102c49061501b565b6109126140ce565b600560008660405160200161092791906149c0565b60408051808303601f1901815291815281516020928301208352828201939093529082016000208251815460026001821615610100026000190190911604601f810184900490930281016102009081019094526101e081018381529093919284928491908401828280156109dc5780601f106109b1576101008083540402835291602001916109dc565b820191906000526020600020905b8154815290600101906020018083116109bf57829003601f168201915b50505050508152602001600182018054600181600116156101000203166002900480601f016020809104026020016040519081016040528092919081815260200182805460018160011615610100020316600290048015610a7e5780601f10610a5357610100808354040283529160200191610a7e565b820191906000526020600020905b815481529060010190602001808311610a6157829003601f168201915b5050509183525050600282810180546040805160206001841615610100026000190190931694909404601f81018390048302850183019091528084529381019390830182828015610b105780601f10610ae557610100808354040283529160200191610b10565b820191906000526020600020905b815481529060010190602001808311610af357829003601f168201915b505050918352505060038201805460408051602060026001851615610100026000190190941693909304601f8101849004840282018401909252818152938201939291830182828015610ba45780601f10610b7957610100808354040283529160200191610ba4565b820191906000526020600020905b815481529060010190602001808311610b8757829003601f168201915b505050918352505060048201805460408051602060026001851615610100026000190190941693909304601f8101849004840282018401909252818152938201939291830182828015610c385780601f10610c0d57610100808354040283529160200191610c38565b820191906000526020600020905b815481529060010190602001808311610c1b57829003601f168201915b5050509183525050600582015460ff1660208083019190915260068301805460408051601f60026000196001861615610100020190941693909304928301859004850281018501825282815294019392830182828015610cd95780601f10610cae57610100808354040283529160200191610cd9565b820191906000526020600020905b815481529060010190602001808311610cbc57829003601f168201915b505050918352505060078201805460408051602060026001851615610100026000190190941693909304601f8101849004840282018401909252818152938201939291830182828015610d6d5780601f10610d4257610100808354040283529160200191610d6d565b820191906000526020600020905b815481529060010190602001808311610d5057829003601f168201915b5050509183525050600882015460209091019060ff166003811115610d8e57fe5b6003811115610d9957fe5b81526020016008820160019054906101000a900460ff166002811115610dbb57fe5b6002811115610dc657fe5b815260098201805460408051602060026001851615610100026000190190941693909304601f8101849004840282018401909252818152938201939291830182828015610e545780601f10610e2957610100808354040283529160200191610e54565b820191906000526020600020905b815481529060010190602001808311610e3757829003601f168201915b505050918352505060408051606081018252600a840180548252600b850180548451602060026001841615610100026000190190931692909204601f8101839004830282018301909652858152958101959394929381860193909291830182828015610f015780601f10610ed657610100808354040283529160200191610f01565b820191906000526020600020905b815481529060010190602001808311610ee457829003601f168201915b50505091835250506002918201546001600160a01b031660209182015291835260408051606081018252600d860180548252600e8701805484516101006001831615026000190190911695909504601f8101879004870286018701909452838552958501959194909385820193909291830182828015610fc25780601f10610f9757610100808354040283529160200191610fc2565b820191906000526020600020905b815481529060010190602001808311610fa557829003601f168201915b50505091835250506002918201546001600160a01b0316602091820152918352601084018054604080516101006001841615026000190190921693909304601f8101859004850282018501909352828152938301939290919083018282801561106c5780601f106110415761010080835404028352916020019161106c565b820191906000526020600020905b81548152906001019060200180831161104f57829003601f168201915b5050509183525050601182015460209091019060ff16600281111561108d57fe5b600281111561109857fe5b9052509050600081610100015160038111156110b057fe5b146110cd5760405162461bcd60e51b81526004016102c490614fad565b6101c081015160008160028111156110e157fe5b14156111c55760a082015160ff166111225760008260c0015180602001905181019061110d91906147f7565b905061111a838783613320565b9250506111c5565b8160a0015160ff166001141561115d5760008260c0015180602001905181019061114c9190614854565b50505091505061111a83878361335e565b8160a0015160ff16600214156111c557600060608360c0015180602001905181019061118991906146d7565b9250505080516000146111b5576000818060200190518101906111ac9190614854565b50919550505050505b6111c084888461335e565b935050505b61010082018560038111156111d657fe5b908160038111156111e357fe5b8152505060006060848060200190518101906111ff919061480f565b9150915061120b61415d565b6040518060600160405280848152602001838152602001336001600160a01b031681525090508085610180018190525084600560008b60405160200161125191906149c0565b6040516020818303038152906040528051906020012081526020019081526020016000206000820151816000019080519060200190611291929190614187565b5060208281015180516112aa9260018501920190614187565b50604082015180516112c6916002840191602090910190614187565b50606082015180516112e2916003840191602090910190614187565b50608082015180516112fe916004840191602090910190614187565b5060a082015160058201805460ff191660ff90921691909117905560c08201518051611334916006840191602090910190614187565b5060e08201518051611350916007840191602090910190614187565b5061010082015160088201805460ff1916600183600381111561136f57fe5b021790555061012082015160088201805461ff00191661010083600281111561139457fe5b021790555061014082015180516113b5916009840191602090910190614187565b506101608201518051600a830190815560208083015180516113dd92600b8701920190614187565b5060409190910151600290910180546001600160a01b0319166001600160a01b039092169190911790556101808201518051600d8301908155602080830151805161142e92600e8701920190614187565b5060409190910151600290910180546001600160a01b0319166001600160a01b039092169190911790556101a08201518051611474916010840191602090910190614187565b506101c082015160118201805460ff1916600183600281111561149357fe5b021790555050855160a08701516040517f8d135a489d96e1765343829efa6bdb58c98291044f2e2e7438541601e14d358293506114d19291906150b5565b60405180910390a1505050505050505050565b6114ec6140ce565b600560008460405160200161150191906149c0565b60408051808303601f1901815291815281516020928301208352828201939093529082016000208251815460026001821615610100026000190190911604601f810184900490930281016102009081019094526101e081018381529093919284928491908401828280156115b65780601f1061158b576101008083540402835291602001916115b6565b820191906000526020600020905b81548152906001019060200180831161159957829003601f168201915b50505050508152602001600182018054600181600116156101000203166002900480601f0160208091040260200160405190810160405280929190818152602001828054600181600116156101000203166002900480156116585780601f1061162d57610100808354040283529160200191611658565b820191906000526020600020905b81548152906001019060200180831161163b57829003601f168201915b5050509183525050600282810180546040805160206001841615610100026000190190931694909404601f810183900483028501830190915280845293810193908301828280156116ea5780601f106116bf576101008083540402835291602001916116ea565b820191906000526020600020905b8154815290600101906020018083116116cd57829003601f168201915b505050918352505060038201805460408051602060026001851615610100026000190190941693909304601f810184900484028201840190925281815293820193929183018282801561177e5780601f106117535761010080835404028352916020019161177e565b820191906000526020600020905b81548152906001019060200180831161176157829003601f168201915b505050918352505060048201805460408051602060026001851615610100026000190190941693909304601f81018490048402820184019092528181529382019392918301828280156118125780601f106117e757610100808354040283529160200191611812565b820191906000526020600020905b8154815290600101906020018083116117f557829003601f168201915b5050509183525050600582015460ff1660208083019190915260068301805460408051601f600260001960018616156101000201909416939093049283018590048502810185018252828152940193928301828280156118b35780601f10611888576101008083540402835291602001916118b3565b820191906000526020600020905b81548152906001019060200180831161189657829003601f168201915b505050918352505060078201805460408051602060026001851615610100026000190190941693909304601f81018490048402820184019092528181529382019392918301828280156119475780601f1061191c57610100808354040283529160200191611947565b820191906000526020600020905b81548152906001019060200180831161192a57829003601f168201915b5050509183525050600882015460209091019060ff16600381111561196857fe5b600381111561197357fe5b81526020016008820160019054906101000a900460ff16600281111561199557fe5b60028111156119a057fe5b815260098201805460408051602060026001851615610100026000190190941693909304601f8101849004840282018401909252818152938201939291830182828015611a2e5780601f10611a0357610100808354040283529160200191611a2e565b820191906000526020600020905b815481529060010190602001808311611a1157829003601f168201915b505050918352505060408051606081018252600a840180548252600b850180548451602060026001841615610100026000190190931692909204601f8101839004830282018301909652858152958101959394929381860193909291830182828015611adb5780601f10611ab057610100808354040283529160200191611adb565b820191906000526020600020905b815481529060010190602001808311611abe57829003601f168201915b50505091835250506002918201546001600160a01b031660209182015291835260408051606081018252600d860180548252600e8701805484516101006001831615026000190190911695909504601f8101879004870286018701909452838552958501959194909385820193909291830182828015611b9c5780601f10611b7157610100808354040283529160200191611b9c565b820191906000526020600020905b815481529060010190602001808311611b7f57829003601f168201915b50505091835250506002918201546001600160a01b0316602091820152918352601084018054604080516101006001841615026000190190921693909304601f81018590048502820185019093528281529383019392909190830182828015611c465780601f10611c1b57610100808354040283529160200191611c46565b820191906000526020600020905b815481529060010190602001808311611c2957829003601f168201915b5050509183525050601182015460209091019060ff166002811115611c6757fe5b6002811115611c7257fe5b90525090506000816101c001516002811115611c8a57fe5b14611ca75760405162461bcd60e51b81526004016102c490614c84565b60038161010001516003811115611cba57fe5b1480611cd6575060028161010001516003811115611cd457fe5b145b611cf25760405162461bcd60e51b81526004016102c490614c4d565b6060611cfd33612ec0565b90508160600151604051602001611d1491906149c0565b6040516020818303038152906040528051906020012081604051602001611d3b91906149c0565b6040516020818303038152906040528051906020012014611d6e5760405162461bcd60e51b81526004016102c490614ef5565b60018261012001516002811115611d8157fe5b14611d9e5760405162461bcd60e51b81526004016102c490614d33565b60a082015160ff16611dbe57611db98260c0015130856133d4565b611dfa565b8160a0015160ff1660011415611ddc57611db98260c0015184613506565b8160a0015160ff1660021415611dfa57611dfa8260c0015184613559565b60026101208301526040518290600590600090611e1b9088906020016149c0565b6040516020818303038152906040528051906020012081526020019081526020016000206000820151816000019080519060200190611e5b929190614187565b506020828101518051611e749260018501920190614187565b5060408201518051611e90916002840191602090910190614187565b5060608201518051611eac916003840191602090910190614187565b5060808201518051611ec8916004840191602090910190614187565b5060a082015160058201805460ff191660ff90921691909117905560c08201518051611efe916006840191602090910190614187565b5060e08201518051611f1a916007840191602090910190614187565b5061010082015160088201805460ff19166001836003811115611f3957fe5b021790555061012082015160088201805461ff001916610100836002811115611f5e57fe5b02179055506101408201518051611f7f916009840191602090910190614187565b506101608201518051600a83019081556020808301518051611fa792600b8701920190614187565b5060409190910151600290910180546001600160a01b0319166001600160a01b039092169190911790556101808201518051600d83019081556020808301518051611ff892600e8701920190614187565b5060409190910151600290910180546001600160a01b0319166001600160a01b039092169190911790556101a0820151805161203e916010840191602090910190614187565b506101c082015160118201805460ff1916600183600281111561205d57fe5b02179055509050507f16b51c12ab04ae685dfc370798c92fe6828b7cc8712da10be3240ec920e4204b836040516120949190615083565b60405180910390a150505050565b806040516020016120b391906149c0565b6040516020818303038152906040528051906020012060046040516020016120db91906149dc565b604051602081830303815290604052805190602001201461210e5760405162461bcd60e51b81526004016102c49061501b565b60ff8516158061212157508460ff166001145b8061212f57508460ff166002145b61214b5760405162461bcd60e51b81526004016102c490614c16565b60ff85166121635761215e8988866135da565b612185565b8460ff166001141561217a5761215e898886613694565b612185898886613763565b60606121908a612ec0565b905061219a6140ce565b6121ba828b8b8b8b8b600060405180602001604052806000815250613085565b610140810186905260e081018590526101a08101849052805160405191925082916005916000916121ee91906020016149c0565b604051602081830303815290604052805190602001208152602001908152602001600020600082015181600001908051906020019061222e929190614187565b5060208281015180516122479260018501920190614187565b5060408201518051612263916002840191602090910190614187565b506060820151805161227f916003840191602090910190614187565b506080820151805161229b916004840191602090910190614187565b5060a082015160058201805460ff191660ff90921691909117905560c082015180516122d1916006840191602090910190614187565b5060e082015180516122ed916007840191602090910190614187565b5061010082015160088201805460ff1916600183600381111561230c57fe5b021790555061012082015160088201805461ff00191661010083600281111561233157fe5b02179055506101408201518051612352916009840191602090910190614187565b506101608201518051600a8301908155602080830151805161237a92600b8701920190614187565b5060409190910151600290910180546001600160a01b0319166001600160a01b039092169190911790556101808201518051600d830190815560208083015180516123cb92600e8701920190614187565b5060409190910151600290910180546001600160a01b0319166001600160a01b039092169190911790556101a08201518051612411916010840191602090910190614187565b506101c082015160118201805460ff1916600183600281111561243057fe5b02179055505081516040517fa708820a3dffc653e7997895bbd91de60498807398b93ef30dfddeda42d2bea4925061246a91908a90615052565b60405180910390a15050505050505050505050565b6000600660006009548460405160200161249a929190614a4c565b604051602081830303815290604052805190602001208152602001908152602001600020549050919050565b6001546001600160a01b031633146124f05760405162461bcd60e51b81526004016102c49061515b565b6124f8613855565b50565b612503613855565b5050565b600a5460ff161561252a5760405162461bcd60e51b81526004016102c490614e46565b600180546001600160a01b0319163317905560408051808201909152600280825261563160f01b602090920191825261256591600491614187565b506000600981905580546001600160a01b0319166001600160a01b0392909216919091179055600a805460ff19166001179055565b6125a2613855565b505050565b606080600080600060608060606125bc6140ce565b600560008b6040516020016125d191906149c0565b60408051808303601f1901815291815281516020928301208352828201939093529082016000208251815460026001821615610100026000190190911604601f810184900490930281016102009081019094526101e081018381529093919284928491908401828280156126865780601f1061265b57610100808354040283529160200191612686565b820191906000526020600020905b81548152906001019060200180831161266957829003601f168201915b50505050508152602001600182018054600181600116156101000203166002900480601f0160208091040260200160405190810160405280929190818152602001828054600181600116156101000203166002900480156127285780601f106126fd57610100808354040283529160200191612728565b820191906000526020600020905b81548152906001019060200180831161270b57829003601f168201915b5050509183525050600282810180546040805160206001841615610100026000190190931694909404601f810183900483028501830190915280845293810193908301828280156127ba5780601f1061278f576101008083540402835291602001916127ba565b820191906000526020600020905b81548152906001019060200180831161279d57829003601f168201915b505050918352505060038201805460408051602060026001851615610100026000190190941693909304601f810184900484028201840190925281815293820193929183018282801561284e5780601f106128235761010080835404028352916020019161284e565b820191906000526020600020905b81548152906001019060200180831161283157829003601f168201915b505050918352505060048201805460408051602060026001851615610100026000190190941693909304601f81018490048402820184019092528181529382019392918301828280156128e25780601f106128b7576101008083540402835291602001916128e2565b820191906000526020600020905b8154815290600101906020018083116128c557829003601f168201915b5050509183525050600582015460ff1660208083019190915260068301805460408051601f600260001960018616156101000201909416939093049283018590048502810185018252828152940193928301828280156129835780601f1061295857610100808354040283529160200191612983565b820191906000526020600020905b81548152906001019060200180831161296657829003601f168201915b505050918352505060078201805460408051602060026001851615610100026000190190941693909304601f8101849004840282018401909252818152938201939291830182828015612a175780601f106129ec57610100808354040283529160200191612a17565b820191906000526020600020905b8154815290600101906020018083116129fa57829003601f168201915b5050509183525050600882015460209091019060ff166003811115612a3857fe5b6003811115612a4357fe5b81526020016008820160019054906101000a900460ff166002811115612a6557fe5b6002811115612a7057fe5b815260098201805460408051602060026001851615610100026000190190941693909304601f8101849004840282018401909252818152938201939291830182828015612afe5780601f10612ad357610100808354040283529160200191612afe565b820191906000526020600020905b815481529060010190602001808311612ae157829003601f168201915b505050918352505060408051606081018252600a840180548252600b850180548451602060026001841615610100026000190190931692909204601f8101839004830282018301909652858152958101959394929381860193909291830182828015612bab5780601f10612b8057610100808354040283529160200191612bab565b820191906000526020600020905b815481529060010190602001808311612b8e57829003601f168201915b50505091835250506002918201546001600160a01b031660209182015291835260408051606081018252600d860180548252600e8701805484516101006001831615026000190190911695909504601f8101879004870286018701909452838552958501959194909385820193909291830182828015612c6c5780601f10612c4157610100808354040283529160200191612c6c565b820191906000526020600020905b815481529060010190602001808311612c4f57829003601f168201915b50505091835250506002918201546001600160a01b0316602091820152918352601084018054604080516101006001841615026000190190921693909304601f81018590048502820185019093528281529383019392909190830182828015612d165780601f10612ceb57610100808354040283529160200191612d16565b820191906000526020600020905b815481529060010190602001808311612cf957829003601f168201915b5050509183525050601182015460209091019060ff166002811115612d3757fe5b6002811115612d4257fe5b815250509050606081602001518260400151836060015184608001518560a0015160ff16604051602001612d7a959493929190614b59565b604051602081830303815290604052905060608260e00151836101400151846101a00151604051602001612db093929190614b20565b60408051601f1981840301815282825261016086015180516020828101519290940151929550606094612de694919391016151ff565b60408051601f1981840301815282825261018087015180516020828101519290940151929550606094612e1c94919391016151ff565b60408051601f1981840301815291905260c08601516101008701516101208801516101c090980151969f50909d509b50949950929750955091935090915050919395975091939597565b6000805b600354811015612eb857336001600160a01b031660038281548110612e8b57fe5b6000918252602090912001546001600160a01b03161415612eb05760019150506103ac565b600101612e6a565b506000905090565b60608082604051602001612ed491906148fe565b60408051601f19818403018152828201909152601082526f181899199a1a9b1b9c1cb0b131b232b360811b6020830152805190925060609060029081020167ffffffffffffffff81118015612f2857600080fd5b506040519080825280601f01601f191660200182016040528015612f53576020820181803683370190505b509050600360fc1b81600081518110612f6857fe5b60200101906001600160f81b031916908160001a905350600f60fb1b81600181518110612f9157fe5b60200101906001600160f81b031916908160001a90535060005b835181101561307c57826004858381518110612fc357fe5b016020015182516001600160f81b031990911690911c60f81c908110612fe557fe5b602001015160f81c60f81b82826002026002018151811061300257fe5b60200101906001600160f81b031916908160001a9053508284828151811061302657fe5b602091010151815160f89190911c600f1690811061304057fe5b602001015160f81c60f81b82826002026003018151811061305d57fe5b60200101906001600160f81b031916908160001a905350600101612fab565b50949350505050565b61308d6140ce565b60405160200161309c906103ac565b60405160208183030381529060405280519060200120826040516020016130c391906149c0565b6040516020818303038152906040528051906020012014156130ec576130e98787613889565b91505b6130f46140ce565b8281526020810188905260408101879052606081018a90526080810189905260ff861660a082015260c08101859052600061010082018190526101208201526101c0810184600281111561314457fe5b9081600281111561315157fe5b9052509998505050505050505050565b60008180602001905181019061317791906147f7565b90506125a28382613943565b6000818060200190518101906131999190614854565b5093505050503481146131be5760405162461bcd60e51b81526004016102c490614e87565b6040516001600160a01b0384169082156108fc029083906000818181858888f193505050501580156131f4573d6000803e3d6000fd5b50505050565b60608060608380602001905181019061321391906146d7565b92509250925060008180602001905181019061322f9190614854565b5093505050503481146132545760405162461bcd60e51b81526004016102c490614e87565b6000866001600160a01b0316828660405160200161327291906149c0565b604051602081830303815290604052805190602001208660405160200161329a929190614977565b60408051601f19818403018152908290526132b4916149c0565b60006040518083038185875af1925050503d80600081146132f1576040519150601f19603f3d011682016040523d82523d6000602084013e6132f6565b606091505b50509050806133175760405162461bcd60e51b81526004016102c490614da1565b50505050505050565b6133286140ce565b600183600381111561333657fe5b141561334b576133463083613a0c565b613354565b60016101208501525b50825b9392505050565b6133666140ce565b600183600381111561337457fe5b141561334b576000600360008154811061338a57fe5b60009182526020822001546040516001600160a01b039091169250829185156108fc02918691818181858888f193505050501580156133cd573d6000803e3d6000fd5b5050613354565b6000838060200190518101906133ea91906147f7565b905060006006600060095486604051602001613407929190614a4c565b60405160208183030381529060405280519060200120815260200190815260200160002054905060006006600060095486604051602001613449929190614a4c565b604051602081830303815290604052805190602001208152602001908152602001600020549050828101905080600660006009548760405160200161348f929190614a4c565b6040516020818303038152906040528051906020012081526020019081526020016000208190555082820391508160066000600954886040516020016134d6929190614a4c565b60405160208183030381529060405280519060200120815260200190815260200160002081905550505050505050565b60008280602001905181019061351c9190614854565b5050604051919350506001600160a01b038416915082156108fc029083906000818181858888f193505050501580156131f4573d6000803e3d6000fd5b600060608380602001905181019061357191906146d7565b92505050805160001461359d576000818060200190518101906135949190614854565b50919550505050505b6040516001600160a01b0384169083156108fc029084906000818181858888f193505050501580156135d3573d6000803e3d6000fd5b5050505050565b6001600160a01b03831633146136025760405162461bcd60e51b81526004016102c4906151b8565b8160405160200161361391906149c0565b60405160208183030381529060405280519060200120600260405160200161363b91906149dc565b604051602081830303815290604052805190602001201461366e5760405162461bcd60e51b81526004016102c490614ebe565b60008180602001905181019061368491906147f7565b90506131f4600954333084613ac6565b6001600160a01b03831633146136bc5760405162461bcd60e51b81526004016102c4906151b8565b816040516020016136cd91906149c0565b6040516020818303038152906040528051906020012060026040516020016136f591906149dc565b60405160208183030381529060405280519060200120146137285760405162461bcd60e51b81526004016102c490614ebe565b60008180602001905181019061373e9190614854565b5050509150503481146131f45760405162461bcd60e51b81526004016102c490614e87565b6001600160a01b038316331461378b5760405162461bcd60e51b81526004016102c4906151b8565b8160405160200161379c91906149c0565b6040516020818303038152906040528051906020012060026040516020016137c491906149dc565b60405160208183030381529060405280519060200120146137f75760405162461bcd60e51b81526004016102c490614ebe565b60608180602001905181019061380d91906146d7565b9250505080516000146131f4576000828060200190518101906138309190614854565b5050509150503481146135d35760405162461bcd60e51b81526004016102c490614e87565b600080546040516001600160a01b0390911691369082376000803683855af43d806000843e818015613885578184f35b8184fd5b60606000336008546040516020016138a292919061491b565b60408051601f198184030181529190528051602090910120600880546001019055905060606138d082613c8a565b905060606138e082602080613df4565b905061393961393361391461390e89604051806040016040528060018152602001601d60f91b815250613f18565b88613f18565b604051806040016040528060018152602001601d60f91b815250613f18565b82613f18565b9695505050505050565b6000600660006009548560405160200161395e929190614a4c565b60405160208183030381529060405280519060200120815260200190815260200160002054905081810190508060066000600954866040516020016139a4929190614a4c565b604051602081830303815290604052805190602001208152602001908152602001600020819055507f5f1068768365b85f6b8b28ccde7ace47d808e3d2142116954f97e8b6ea7e0a2f3084846040516139ff939291906150e8565b60405180910390a1505050565b60006006600060095485604051602001613a27929190614a4c565b6040516020818303038152906040528051906020012081526020019081526020016000205490508181039050806006600060095486604051602001613a6d929190614a4c565b604051602081830303815290604052805190602001208152602001908152602001600020819055507fbe7b25e9ec129e97fdee4f413f15b81d90f33681fd891e02de65d4adb985521530836040516139ff929190615127565b60008111613ae65760405162461bcd60e51b81526004016102c490614e0f565b6000600660008686604051602001613aff929190614a4c565b604051602081830303815290604052805190602001208152602001908152602001600020549050818111613b455760405162461bcd60e51b81526004016102c490614bb9565b6000613b518585610286565b9050828111613b725760405162461bcd60e51b81526004016102c490614ce7565b6000600660008887604051602001613b8b929190614a4c565b604051602081830303815290604052805190602001208152602001908152602001600020549050838101905080600660008988604051602001613bcf929190614a4c565b60405160208183030381529060405280519060200120815260200190815260200160002081905550838303925082600660008989604051602001613c14929190614a4c565b60405160208183030381529060405280519060200120815260200190815260200160002081905550838203915081600760008888604051602001613c59929190614947565b6040516020818303038152906040528051906020012081526020019081526020016000208190555050505050505050565b60608082604051602001613c9e919061496e565b60408051601f19818403018152828201909152601082526f181899199a1a9b1b9c1cb0b131b232b360811b6020830152805190925060609060029081020167ffffffffffffffff81118015613cf257600080fd5b506040519080825280601f01601f191660200182016040528015613d1d576020820181803683370190505b50905060005b835181101561307c57826004858381518110613d3b57fe5b016020015182516001600160f81b031990911690911c60f81c908110613d5d57fe5b602001015160f81c60f81b828260020260000181518110613d7a57fe5b60200101906001600160f81b031916908160001a90535082848281518110613d9e57fe5b602091010151815160f89190911c600f16908110613db857fe5b602001015160f81c60f81b828260020260010181518110613dd557fe5b60200101906001600160f81b031916908160001a905350600101613d23565b606081613e105750604080516020810190915260008152613357565b600080808087815b8151841015613e5a5788831415613e3157839550600190505b878901831415613e415785840394505b613e4b8285613f98565b90930192600190920191613e18565b878901831415613e6a5785840394505b80613e875760405162461bcd60e51b81526004016102c490614dd8565b84613ea45760405162461bcd60e51b81526004016102c490614f2c565b60608567ffffffffffffffff81118015613ebd57600080fd5b506040519080825280601f01601f191660200182016040528015613ee8576020820181803683370190505b50905060008060208d019150602083019050613f07818a84018a614090565b50909b9a5050505050505050505050565b6060815183510167ffffffffffffffff81118015613f3557600080fd5b506040519080825280601f01601f191660200182016040528015613f60576020820181803683370190505b50835190915060208481019184820191840190613f809082908590614090565b613f8f86518201838751614090565b50505092915050565b60008060f81b6001600160f81b0319166007848481518110613fb657fe5b01602001516001600160f81b031990811690911c161415613fd957506001610312565b8251600360f91b90600590859085908110613ff057fe5b01602001516001600160f81b031990811690911c16141561401357506002610312565b8251600760f91b9060049085908590811061402a57fe5b01602001516001600160f81b031990811690911c16141561404d57506003610312565b8251600f60f91b9060039085908590811061406457fe5b01602001516001600160f81b031990811690911c16141561408757506004610312565b50600192915050565b5b602081106140b0578151835260209283019290910190601f1901614091565b905182516020929092036101000a6000190180199091169116179052565b604051806101e001604052806060815260200160608152602001606081526020016060815260200160608152602001600060ff16815260200160608152602001606081526020016000600381111561412257fe5b8152602001600081526020016060815260200161413d61415d565b815260200161414a61415d565b8152606060208201526040016000905290565b6040518060600160405280600081526020016060815260200160006001600160a01b031681525090565b828054600181600116156101000203166002900490600052602060002090601f016020900481019282601f106141c857805160ff19168380011785556141f5565b828001600101855582156141f5579182015b828111156141f55782518255916020019190600101906141da565b50614201929150614205565b5090565b5b808211156142015760008155600101614206565b8035610312816152b2565b600082601f830112614235578081fd5b813561424861424382615258565b615231565b915080825283602082850101111561425f57600080fd5b8060208401602084013760009082016020015292915050565b600082601f830112614288578081fd5b815161429661424382615258565b91508082528360208285010111156142ad57600080fd5b6142be81602084016020860161527c565b5092915050565b803560ff8116811461031257600080fd5b6000602082840312156142e7578081fd5b8135613357816152b2565b60008060408385031215614304578081fd5b823561430f816152b2565b9150602083013561431f816152b2565b809150509250929050565b60008060006060848603121561433e578081fd5b8335614349816152b2565b92506020840135614359816152b2565b929592945050506040919091013590565b60008060008060008060008060006101208a8c031215614388578485fd5b6143928b8b61421a565b985060208a013567ffffffffffffffff808211156143ae578687fd5b6143ba8d838e01614225565b995060408c01359150808211156143cf578687fd5b6143db8d838e01614225565b985060608c01359150808211156143f0578687fd5b6143fc8d838e01614225565b975061440b8d60808e016142c5565b965060a08c0135915080821115614420578586fd5b61442c8d838e01614225565b955060c08c0135915080821115614441578485fd5b61444d8d838e01614225565b945060e08c0135915080821115614462578384fd5b61446e8d838e01614225565b93506101008c0135915080821115614484578283fd5b506144918c828d01614225565b9150509295985092959850929598565b600080604083850312156144b3578182fd5b82356144be816152b2565b946020939093013593505050565b6000602082840312156144dd578081fd5b813567ffffffffffffffff8111156144f3578182fd5b6144ff84828501614225565b949350505050565b60008060408385031215614519578182fd5b823567ffffffffffffffff81111561452f578283fd5b61453b85828601614225565b925050602083013561431f816152b2565b60008060008060008060008060008060006101608c8e03121561456d578182fd5b67ffffffffffffffff808d351115614583578283fd5b6145908e8e358f01614225565b9b5061459f8e60208f0161421a565b9a508060408e013511156145b1578283fd5b6145c18e60408f01358f01614225565b99508060608e013511156145d3578283fd5b6145e38e60608f01358f01614225565b98506145f28e60808f016142c5565b97508060a08e01351115614604578283fd5b6146148e60a08f01358f01614225565b96508060c08e01351115614626578283fd5b6146368e60c08f01358f01614225565b95508060e08e01351115614648578283fd5b6146588e60e08f01358f01614225565b9450806101008e0135111561466b578283fd5b61467c8e6101008f01358f01614225565b9350806101208e0135111561468f578283fd5b6146a08e6101208f01358f01614225565b9250806101408e013511156146b3578182fd5b506146c58d6101408e01358e01614225565b90509295989b509295989b9093969950565b6000806000606084860312156146eb578081fd5b835167ffffffffffffffff80821115614702578283fd5b61470e87838801614278565b94506020860151915080821115614723578283fd5b61472f87838801614278565b93506040860151915080821115614744578283fd5b5061475186828701614278565b9150509250925092565b60008060008060808587031215614770578182fd5b843567ffffffffffffffff80821115614787578384fd5b61479388838901614225565b955060208701359150600482106147a8578384fd5b909350604086013590808211156147bd578384fd5b6147c988838901614225565b935060608701359150808211156147de578283fd5b506147eb87828801614225565b91505092959194509250565b600060208284031215614808578081fd5b5051919050565b60008060408385031215614821578182fd5b82519150602083015167ffffffffffffffff81111561483e578182fd5b61484a85828601614278565b9150509250929050565b600080600080600060a0868803121561486b578283fd5b8551945060208601519350604086015167ffffffffffffffff80821115614890578485fd5b61489c89838a01614278565b94506060880151935060808801519150808211156148b8578283fd5b506148c588828901614278565b9150509295509295909350565b600081518084526148ea81602086016020860161527c565b601f01601f19169290920160200192915050565b60609190911b6bffffffffffffffffffffffff1916815260140190565b60609290921b6bffffffffffffffffffffffff191682526014820152603160f81b603482015260350190565b6bffffffffffffffffffffffff19606093841b811682529190921b16601482015260280190565b90815260200190565b7fffffffff000000000000000000000000000000000000000000000000000000008316815281516000906149b281600485016020870161527c565b919091016004019392505050565b600082516149d281846020870161527c565b9190910192915050565b60008083546001808216600081146149fb5760018114614a1257614a41565b60ff198316865260028304607f1686019350614a41565b600283048786526020808720875b83811015614a395781548a820152908501908201614a20565b505050860193505b509195945050505050565b91825260601b6bffffffffffffffffffffffff1916602082015260340190565b6000610100808352614a808184018c6148d2565b90508281036020840152614a94818b6148d2565b905060048910614aa057fe5b886040840152614aaf886152a8565b876060840152614abe876152a8565b86608084015282810360a0840152614ad681876148d2565b905082810360c0840152614aea81866148d2565b905082810360e0840152614afe81856148d2565b9b9a5050505050505050505050565b60006020825261335760208301846148d2565b600060608252614b3360608301866148d2565b8281036020840152614b4581866148d2565b9050828103604084015261393981856148d2565b600060a08252614b6c60a08301886148d2565b8281036020840152614b7e81886148d2565b90508281036040840152614b9281876148d2565b90508281036060840152614ba681866148d2565b9150508260808301529695505050505050565b60208082526033908201527f546865206d61696e2d636861696e20706f696e7473206f66207468652061636360408201527f6f756e7420617265206e6f7420656e6f75676800000000000000000000000000606082015260800190565b60208082526016908201527f57726f6e67207472616e73616374696f6e207479706500000000000000000000604082015260600190565b6020808252601d908201527f526573756c74206973206e6f742074696d656f7574206f72206661696c000000604082015260600190565b6020808252600790820152664e6f742073726360c81b604082015260600190565b60006060825260066060830152650e6cadcc8a8f60d31b608083015260a06020830152614cd560a08301856148d2565b905060ff831660408301529392505050565b6020808252602c908201527f546f6f2066657720706f696e747320616c6c6f77656420666f7220636f6e747260408201526b30b1ba103a3930b739b332b960a11b606082015260800190565b6020808252601b908201527f54686520617373657420686173206265656e2072657475726e65640000000000604082015260600190565b6020808252600f908201527f496e76616c696420616464726573730000000000000000000000000000000000604082015260600190565b60208082526014908201527f436f6e74726163742063616c6c206661696c6564000000000000000000000000604082015260600190565b60208082526018908201527f737461727420696e646578206f7574206f662072616e67650000000000000000604082015260600190565b6020808252601d908201527f416d6f756e74206d7573742062652067726561746572207468616e2030000000604082015260600190565b60208082526021908201527f54686520636f6e747261637420686173206265656e20696e697469616c697a656040820152601960fa1b606082015260800190565b6020808252600f908201527f416d6f756e74206e6f742073616d650000000000000000000000000000000000604082015260600190565b60208082526016908201527f436861696e636f646520697320646966666572656e7400000000000000000000604082015260600190565b6020808252600e908201527f4e6f7420796f7572206173736574000000000000000000000000000000000000604082015260600190565b60208082526010908201527f6c656e206f7574206f662072616e676500000000000000000000000000000000604082015260600190565b6020808252602a908201527f546869732066756e6374696f6e206973207265737472696374656420746f20746040820152696865206761746577617960b01b606082015260800190565b6020808252601a908201527f43726f7373547820726573756c74206973206e6f7420696e6974000000000000604082015260600190565b6020808252600e908201527f496e76616c696420726573756c74000000000000000000000000000000000000604082015260600190565b60208082526014908201527f56657273696f6e20697320646966666572656e74000000000000000000000000604082015260600190565b60006060825260076060830152660e6e8c2e4e8a8f60cb1b608083015260a06020830152614cd560a08301856148d2565b6040808252600790820152661d185ad953dd5d60ca1b60608201526001600160a01b0391909116602082015260800190565b60006060825260096060830152681cd95b991058dad95960ba1b608083015260a06020830152614cd560a08301856148d2565b6080808252600490820152631b5a5b9d60e21b60a08201526001600160a01b039384166020820152919092166040820152606081019190915260c00190565b606080825260049082015263313ab93760e11b60808201526001600160a01b03929092166020830152604082015260a00190565b60208082526033908201527f546869732066756e6374696f6e206973207265737472696374656420746f207460408201527f686520636f6e74726163742773206f776e657200000000000000000000000000606082015260800190565b60208082526027908201527f5374617274207478207372634164647265737320616e642073656e646572206e6040820152666f742073616d6560c81b606082015260800190565b60008482526060602083015261521860608301856148d2565b90506001600160a01b0383166040830152949350505050565b60405181810167ffffffffffffffff8111828210171561525057600080fd5b604052919050565b600067ffffffffffffffff82111561526e578081fd5b50601f01601f191660200190565b60005b8381101561529757818101518382015260200161527f565b838111156131f45750506000910152565b600381106124f857fe5b6001600160a01b03811681146124f857600080fdfea2646970667358221220b436e45e2a620b6bf79dafe55611aa89ca3b5ca31b6ea396c2e8e67cc83f883864736f6c63430007000033",
  "immutableReferences": {},
  "source": "// SPDX-License-Identifier: MIT\r\npragma solidity >=0.4.22 <0.8.0;\r\n\r\npragma experimental ABIEncoderV2;\r\n\r\nimport \"../lib/LibString.sol\";\r\nimport \"./CrossChainContractAdditional.sol\";\r\n\r\n/// @title Cross-chain main contract\r\ncontract CrossChainContract is Storage {\r\n    bool private _Init;\r\n\r\n    /// @notice Cross-chain contract initialization. Can be executed once.\r\n    function initialize(address crossChainAdd) public initializer {\r\n        _Owner = msg.sender;\r\n        _Version = \"V1\";\r\n        _MainChainCode = 0;\r\n        _CrossChainContractAdditional = CrossChainContractAdditional(\r\n            crossChainAdd\r\n        );\r\n        _Init = true;\r\n    }\r\n\r\n    modifier onlyOwner() {\r\n        require(\r\n            msg.sender == _Owner,\r\n            \"This function is restricted to the contract's owner\"\r\n        );\r\n        _;\r\n    }\r\n\r\n    modifier initializer() {\r\n        require(_Init == false, \"The contract has been initialized\");\r\n        _;\r\n    }\r\n\r\n    /// @notice Set subchain AC code. Can only be executed by the contract owner.\r\n    function setChainCode(string memory chainCode) public onlyOwner {\r\n        delegateAdditional();\r\n    }\r\n\r\n    /// @notice Set subchain cross-chain gateway. Can only be executed by the contract owner.\r\n    function setGateway(address gatewayAddress) public onlyOwner {\r\n        delegateAdditional();\r\n    }\r\n\r\n    /// @notice Generate cross-chain transaction number\r\n    /// @notice srcChainCode + ':' + destChainCode + ':' + keccak256(msg.sender, _CrossTxNum, \"1\").substr(0, 32).\r\n    function createCrossTxNo(\r\n        string memory srcChainCode,\r\n        string memory destChainCode\r\n    ) internal returns (string memory) {\r\n        bytes32 data = keccak256(\r\n            abi.encodePacked(msg.sender, _CrossTxNum, \"1\")\r\n        );\r\n        _CrossTxNum++;\r\n        string memory dataToString = bytes32ToString(data);\r\n        string memory halfDataString = LibString.substrByCharIndex(\r\n            dataToString,\r\n            32,\r\n            32\r\n        );\r\n\r\n        return\r\n            LibString.concat(\r\n                LibString.concat(\r\n                    LibString.concat(\r\n                        LibString.concat(srcChainCode, \":\"),\r\n                        destChainCode\r\n                    ),\r\n                    \":\"\r\n                ),\r\n                halfDataString\r\n            );\r\n    }\r\n\r\n    /// @notice Generate cross-chain transaction object\r\n    function createCrossTx(\r\n        string memory srcBid,\r\n        string memory destBid,\r\n        string memory srcChainCode,\r\n        string memory destChainCode,\r\n        uint8 txType,\r\n        bytes memory payload,\r\n        TxOriginEnum origin,\r\n        string memory crossTxNo\r\n    ) internal returns (_CrossTxObj memory) {\r\n        if (\r\n            keccak256(abi.encodePacked(crossTxNo)) ==\r\n            keccak256(abi.encodePacked(\"\"))\r\n        ) {\r\n            crossTxNo = createCrossTxNo(srcChainCode, destChainCode);\r\n        }\r\n        _CrossTxObj memory crossTxTemp;\r\n\r\n        crossTxTemp.CrossTxNo = crossTxNo;\r\n        crossTxTemp.SrcChainCode = srcChainCode;\r\n        crossTxTemp.DestChainCode = destChainCode;\r\n        crossTxTemp.SrcBid = srcBid;\r\n        crossTxTemp.DestBid = destBid;\r\n        crossTxTemp.TxType = txType;\r\n        crossTxTemp.Payload = payload;\r\n        crossTxTemp.Result = TxResultEnum.INIT;\r\n        crossTxTemp.Refunded = TxRefundedEnum.NONE;\r\n        crossTxTemp.Origin = origin;\r\n\r\n        return crossTxTemp;\r\n    }\r\n\r\n    /// @notice Number of points that can be transferred by authorization\r\n    function approve(\r\n        address from,\r\n        address to,\r\n        uint256 value\r\n    ) public {\r\n        delegateAdditional();\r\n    }\r\n\r\n    /// @notice Query the number of authorized points\r\n    function getAllowance(address owner, address spender)\r\n        public\r\n        view\r\n        returns (uint256)\r\n    {\r\n        require(\r\n            owner != address(0x0) && spender != address(0x0),\r\n            \"Invalid address\"\r\n        );\r\n        uint256 value = _AllowValue[\r\n            keccak256(abi.encodePacked(owner, spender))\r\n        ];\r\n        return value;\r\n    }\r\n\r\n    /// @notice Contract transfer main chain points to itself\r\n    function transferFromContractSelf(\r\n        uint256 asstKey,\r\n        address from,\r\n        address to,\r\n        uint256 value\r\n    ) internal {\r\n        require(value > 0, \"Amount must be greater than 0\");\r\n        uint256 fromValue = _MainAsset[\r\n            keccak256(abi.encodePacked(asstKey, from))\r\n        ];\r\n        require(\r\n            fromValue > value,\r\n            \"The main-chain points of the account are not enough\"\r\n        );\r\n\r\n        uint256 allowValue = getAllowance(from, to);\r\n        require(\r\n            allowValue > value,\r\n            \"Too few points allowed for contract transfer\"\r\n        );\r\n\r\n        uint256 toValue = _MainAsset[keccak256(abi.encodePacked(asstKey, to))];\r\n        toValue = toValue + value;\r\n        _MainAsset[keccak256(abi.encodePacked(asstKey, to))] = toValue;\r\n\r\n        fromValue = fromValue - value;\r\n        _MainAsset[keccak256(abi.encodePacked(asstKey, from))] = fromValue;\r\n\r\n        allowValue = allowValue - value;\r\n        _AllowValue[keccak256(abi.encodePacked(from, to))] = allowValue;\r\n    }\r\n\r\n    /// @notice The subchain user sends the main chain points transfer\r\n    function subStartTxGas(\r\n        address srcAddress,\r\n        string memory srcChainCode,\r\n        bytes memory payload\r\n    ) internal {\r\n        require(\r\n            srcAddress == msg.sender,\r\n            \"Start tx srcAddress and sender not same\"\r\n        );\r\n        require(\r\n            keccak256(abi.encodePacked(_ChainCode)) ==\r\n                keccak256(abi.encodePacked(srcChainCode)),\r\n            \"Chaincode is different\"\r\n        );\r\n\r\n        uint256 amount = abi.decode(payload, (uint256));\r\n        transferFromContractSelf(\r\n            _MainChainCode,\r\n            msg.sender,\r\n            address(this),\r\n            amount\r\n        );\r\n    }\r\n\r\n    /// @notice Subchain user sends subchain points exchange\r\n    /// @notice Contract locked subchain points\r\n    function subStartTxSgas(\r\n        address srcAddress,\r\n        string memory srcChainCode,\r\n        bytes memory payload\r\n    ) internal {\r\n        require(\r\n            srcAddress == msg.sender,\r\n            \"Start tx srcAddress and sender not same\"\r\n        );\r\n        require(\r\n            keccak256(abi.encodePacked(_ChainCode)) ==\r\n                keccak256(abi.encodePacked(srcChainCode)),\r\n            \"Chaincode is different\"\r\n        );\r\n\r\n        (, uint256 srcAmount, , , ) = abi.decode(\r\n            payload,\r\n            (uint256, uint256, string, uint256, string)\r\n        );\r\n        require(srcAmount == msg.value, \"Amount not same\");\r\n    }\r\n\r\n    /// @notice Subchain user sends contract interoperability\r\n    function subStartTxCall(\r\n        address srcAddress,\r\n        string memory srcChainCode,\r\n        bytes memory payload\r\n    ) internal {\r\n        require(\r\n            srcAddress == msg.sender,\r\n            \"Start tx srcAddress and sender not same\"\r\n        );\r\n        require(\r\n            keccak256(abi.encodePacked(_ChainCode)) ==\r\n                keccak256(abi.encodePacked(srcChainCode)),\r\n            \"Chaincode is different\"\r\n        );\r\n\r\n        (, , bytes memory token) = abi.decode(payload, (string, bytes, bytes));\r\n\r\n        if (token.length != 0) {\r\n            (, uint256 srcAmount, , , ) = abi.decode(\r\n                payload,\r\n                (uint256, uint256, string, uint256, string)\r\n            );\r\n            require(srcAmount == msg.value, \"Amount not same\");\r\n        }\r\n    }\r\n\r\n    /// @notice Users of the subchain initiate cross-chain transactions\r\n    function startTx(\r\n        address srcAddress,\r\n        string memory destBid,\r\n        string memory srcChainCode,\r\n        string memory destChainCode,\r\n        uint8 txType,\r\n        bytes memory payload,\r\n        string memory extension,\r\n        string memory remark,\r\n        string memory version\r\n    ) public payable {\r\n        require(\r\n            keccak256(abi.encodePacked(_Version)) ==\r\n                keccak256(abi.encodePacked(version)),\r\n            \"Version is different\"\r\n        );\r\n        require(\r\n            txType == 0 || txType == 1 || txType == 2,\r\n            \"Wrong transaction type\"\r\n        );\r\n\r\n        /// @notice There are three types of cross-chain transactions\r\n        if (txType == 0) {\r\n            subStartTxGas(srcAddress, srcChainCode, payload);\r\n        } else if (txType == 1) {\r\n            subStartTxSgas(srcAddress, srcChainCode, payload);\r\n        } else {\r\n            subStartTxCall(srcAddress, srcChainCode, payload);\r\n        }\r\n\r\n        string memory srcAddr = addressToString(srcAddress);\r\n        _CrossTxObj memory crossTxObj = createCrossTx(\r\n            srcAddr,\r\n            destBid,\r\n            srcChainCode,\r\n            destChainCode,\r\n            txType,\r\n            payload,\r\n            TxOriginEnum.SRC,\r\n            \"\"\r\n        );\r\n        crossTxObj.Extension = extension;\r\n        crossTxObj.Remark = remark;\r\n        crossTxObj.Version = version;\r\n        _CrossTxObject[\r\n            keccak256(abi.encodePacked(crossTxObj.CrossTxNo))\r\n        ] = crossTxObj;\r\n\r\n        emit startTxEvent(\"startTx\", crossTxObj.CrossTxNo, txType);\r\n    }\r\n\r\n    /// @notice Check whether it is a gateway node\r\n    function checkGateNode() internal view returns (bool) {\r\n        for (uint256 i = 0; i < _GatewayList.length; i++) {\r\n            if (_GatewayList[i] == msg.sender) {\r\n                return true;\r\n            }\r\n        }\r\n        return false;\r\n    }\r\n\r\n    /// @notice Casting main chain points\r\n    function assetMint(address destAddress, uint256 amount) internal {\r\n        uint256 toValue = _MainAsset[\r\n            keccak256(abi.encodePacked(_MainChainCode, destAddress))\r\n        ];\r\n        toValue = toValue + amount;\r\n        _MainAsset[\r\n            keccak256(abi.encodePacked(_MainChainCode, destAddress))\r\n        ] = toValue;\r\n\r\n        emit AssetMintEvent(\"mint\", address(this), destAddress, amount);\r\n    }\r\n\r\n    /// @notice Destroy main chain points\r\n    function assetBurn(address destAddress, uint256 amount) internal {\r\n        uint256 remainValue = _MainAsset[\r\n            keccak256(abi.encodePacked(_MainChainCode, destAddress))\r\n        ];\r\n        remainValue = remainValue - amount;\r\n        _MainAsset[\r\n            keccak256(abi.encodePacked(_MainChainCode, destAddress))\r\n        ] = remainValue;\r\n\r\n        emit AssetBurnEvent(\"burn\", address(this), amount);\r\n    }\r\n\r\n    /// @notice The subchain gateway submits the main chain points transfer transaction\r\n    function subSendTxGas(address destAddress, bytes memory payload) internal {\r\n        uint256 amount = abi.decode(payload, (uint256));\r\n        assetMint(destAddress, amount);\r\n    }\r\n\r\n    /// @notice The subchain gateway submits the subchain point exchange transaction\r\n    function subSendTxSgas(address payable destAddress, bytes memory payload)\r\n        internal\r\n    {\r\n        (, , , uint256 destAmount, ) = abi.decode(\r\n            payload,\r\n            (uint256, uint256, string, uint256, string)\r\n        );\r\n        require(destAmount == msg.value, \"Amount not same\");\r\n        destAddress.transfer(destAmount);\r\n    }\r\n\r\n    /// @notice Subchain gateway submits contract interoperability transaction\r\n    function subSendTxCall(address payable destAddress, bytes memory payload)\r\n        internal\r\n    {\r\n        (string memory _method, bytes memory _params, bytes memory token) = abi\r\n            .decode(payload, (string, bytes, bytes));\r\n\r\n        (, , , uint256 destAmount, ) = abi.decode(\r\n            token,\r\n            (uint256, uint256, string, uint256, string)\r\n        );\r\n        require(destAmount == msg.value, \"Amount not same\");\r\n\r\n        (bool success, ) = destAddress.call{value: destAmount}(\r\n            abi.encodePacked(\r\n                bytes4(keccak256(abi.encodePacked(_method))),\r\n                _params\r\n            )\r\n        );\r\n\r\n        require(success, \"Contract call failed\");\r\n    }\r\n\r\n    /// @notice Gateway node submits cross-chain transaction\r\n    function sendTx(\r\n        string memory srcBid,\r\n        address payable destAddress,\r\n        string memory srcChainCode,\r\n        string memory destChainCode,\r\n        uint8 txType,\r\n        string memory crossTxNo,\r\n        bytes memory payload,\r\n        string memory extension,\r\n        string memory remark,\r\n        string memory version,\r\n        bytes memory proof\r\n    ) public payable {\r\n        require(checkGateNode(), \"This function is restricted to the gateway\");\r\n        require(destAddress != address(0x0), \"Invalid address\");\r\n        require(\r\n            keccak256(abi.encodePacked(_Version)) ==\r\n                keccak256(abi.encodePacked(version)),\r\n            \"Version is different\"\r\n        );\r\n        require(\r\n            txType == 0 || txType == 1 || txType == 2,\r\n            \"Wrong transaction type\"\r\n        );\r\n\r\n        string memory destAddr = addressToString(destAddress);\r\n        _CrossTxObj memory crossTxObj = createCrossTx(\r\n            srcBid,\r\n            destAddr,\r\n            srcChainCode,\r\n            destChainCode,\r\n            txType,\r\n            payload,\r\n            TxOriginEnum.DEST,\r\n            crossTxNo\r\n        );\r\n        crossTxObj.Extension = extension;\r\n        crossTxObj.Remark = remark;\r\n        crossTxObj.Version = version;\r\n\r\n        /// @notice There are three types of cross-chain transactions\r\n        if (txType == 0) {\r\n            subSendTxGas(destAddress, payload);\r\n        } else if (txType == 1) {\r\n            subSendTxSgas(destAddress, payload);\r\n        } else if (txType == 2) {\r\n            subSendTxCall(destAddress, payload);\r\n        }\r\n\r\n        (uint256 ledgerSeq, string memory txHash) = abi.decode(\r\n            proof,\r\n            (uint256, string)\r\n        );\r\n        _SendProof memory sendProof = _SendProof({\r\n            LedgerSeq: ledgerSeq,\r\n            TxHash: txHash,\r\n            verifieraddr: msg.sender\r\n        });\r\n        crossTxObj.SendProofs = sendProof;\r\n        _CrossTxObject[keccak256(abi.encodePacked(crossTxNo))] = crossTxObj;\r\n\r\n        emit sendTxEvent(\"sendTx\", crossTxNo, txType);\r\n    }\r\n\r\n    /// @notice The subchain gateway submits the main chain points transfer confirmation transaction\r\n    function subSendAckSrcGas(\r\n        _CrossTxObj memory crossTx_Obj,\r\n        TxResultEnum result,\r\n        uint256 amount\r\n    ) internal returns (_CrossTxObj memory) {\r\n        if (result == TxResultEnum.ACK_SUCCESS) {\r\n            assetBurn(address(this), amount);\r\n        } else {\r\n            crossTx_Obj.Refunded = TxRefundedEnum.TODO;\r\n        }\r\n\r\n        return crossTx_Obj;\r\n    }\r\n\r\n    /// @notice The subchain gateway submits the subchain point exchange confirmation transaction\r\n    function subSendAckSrcSgas(\r\n        _CrossTxObj memory crossTx_Obj,\r\n        TxResultEnum result,\r\n        uint256 srcAmount\r\n    ) internal returns (_CrossTxObj memory) {\r\n        if (result == TxResultEnum.ACK_SUCCESS) {\r\n            address payable addr = address(uint160(_GatewayList[0]));\r\n            addr.transfer(srcAmount);\r\n        } else {\r\n            crossTx_Obj.Refunded = TxRefundedEnum.TODO;\r\n        }\r\n\r\n        return crossTx_Obj;\r\n    }\r\n\r\n    /// @notice The subchain gateway submits the contract interoperability confirmation transaction\r\n    function subSendAckSrcCall(\r\n        _CrossTxObj memory crossTx_Obj,\r\n        TxResultEnum result,\r\n        uint256 srcAmount\r\n    ) internal returns (_CrossTxObj memory) {\r\n        if (result == TxResultEnum.ACK_SUCCESS) {\r\n            address payable addr = address(uint160(_GatewayList[0]));\r\n            addr.transfer(srcAmount);\r\n        } else {\r\n            crossTx_Obj.Refunded = TxRefundedEnum.TODO;\r\n        }\r\n\r\n        return crossTx_Obj;\r\n    }\r\n\r\n    /// @notice Gateway node submits cross-chain confirmation transaction\r\n    function sendAcked(\r\n        string memory crossTxNo,\r\n        TxResultEnum result,\r\n        string memory version,\r\n        bytes memory proof\r\n    ) public {\r\n        require(checkGateNode(), \"This function is restricted to the gateway\");\r\n        require(\r\n            result == TxResultEnum.ACK_SUCCESS ||\r\n                result == TxResultEnum.ACK_FAIL ||\r\n                result == TxResultEnum.ACK_TIMEOUT,\r\n            \"Invalid result\"\r\n        );\r\n        require(\r\n            keccak256(abi.encodePacked(_Version)) ==\r\n                keccak256(abi.encodePacked(version)),\r\n            \"Version is different\"\r\n        );\r\n\r\n        _CrossTxObj memory crossTxObj = _CrossTxObject[\r\n            keccak256(abi.encodePacked(crossTxNo))\r\n        ];\r\n        require(\r\n            crossTxObj.Result == TxResultEnum.INIT,\r\n            \"CrossTx result is not init\"\r\n        );\r\n        TxOriginEnum origin = crossTxObj.Origin;\r\n\r\n        if (origin == TxOriginEnum.SRC) {\r\n            if (crossTxObj.TxType == 0) {\r\n                uint256 amount = abi.decode(crossTxObj.Payload, (uint256));\r\n                crossTxObj = subSendAckSrcGas(crossTxObj, result, amount);\r\n            } else if (crossTxObj.TxType == 1) {\r\n                (, uint256 srcAmount, , , ) = abi.decode(\r\n                    crossTxObj.Payload,\r\n                    (uint256, uint256, string, uint256, string)\r\n                );\r\n                crossTxObj = subSendAckSrcSgas(crossTxObj, result, srcAmount);\r\n            } else if (crossTxObj.TxType == 2) {\r\n                uint256 _srcAmount;\r\n                (, , bytes memory token) = abi.decode(\r\n                    crossTxObj.Payload,\r\n                    (string, bytes, bytes)\r\n                );\r\n                if (token.length != 0) {\r\n                    (, uint256 srcAmount, , , ) = abi.decode(\r\n                        token,\r\n                        (uint256, uint256, string, uint256, string)\r\n                    );\r\n                    _srcAmount = srcAmount;\r\n                }\r\n                crossTxObj = subSendAckSrcCall(crossTxObj, result, _srcAmount);\r\n            }\r\n        }\r\n\r\n        crossTxObj.Result = TxResultEnum(result);\r\n        (uint256 ledgerSeq, string memory txHash) = abi.decode(\r\n            proof,\r\n            (uint256, string)\r\n        );\r\n        _AckProof memory ackProof = _AckProof({\r\n            LedgerSeq: ledgerSeq,\r\n            TxHash: txHash,\r\n            verifieraddr: msg.sender\r\n        });\r\n        crossTxObj.AckProofs = ackProof;\r\n        _CrossTxObject[keccak256(abi.encodePacked(crossTxNo))] = crossTxObj;\r\n\r\n        emit sendAckedEvent(\r\n            \"sendAcked\",\r\n            crossTxObj.CrossTxNo,\r\n            crossTxObj.TxType\r\n        );\r\n    }\r\n\r\n    /// @notice Withdraw main chain points\r\n    function takeOutgas(\r\n        bytes memory payload,\r\n        address contractAddr,\r\n        address to\r\n    ) internal {\r\n        uint256 amount = abi.decode(payload, (uint256));\r\n\r\n        uint256 fromValue = _MainAsset[\r\n            keccak256(abi.encodePacked(_MainChainCode, contractAddr))\r\n        ];\r\n\r\n        uint256 toValue = _MainAsset[\r\n            keccak256(abi.encodePacked(_MainChainCode, to))\r\n        ];\r\n        toValue = toValue + amount;\r\n        _MainAsset[keccak256(abi.encodePacked(_MainChainCode, to))] = toValue;\r\n\r\n        fromValue = fromValue - amount;\r\n        _MainAsset[\r\n            keccak256(abi.encodePacked(_MainChainCode, contractAddr))\r\n        ] = fromValue;\r\n    }\r\n\r\n    /// @notice Withdraw subchain points\r\n    function takeOutSgas(bytes memory payload, address payable to) internal {\r\n        (, uint256 srcAmount, , , ) = abi.decode(\r\n            payload,\r\n            (uint256, uint256, string, uint256, string)\r\n        );\r\n        to.transfer(srcAmount);\r\n    }\r\n\r\n    /// @notice Withdrawal of contractual interoperability assets\r\n    function takeOutCall(bytes memory payload, address payable to) internal {\r\n        uint256 _srcAmount;\r\n        (, , bytes memory token) = abi.decode(payload, (string, bytes, bytes));\r\n        if (token.length != 0) {\r\n            (, uint256 srcAmount, , , ) = abi.decode(\r\n                token,\r\n                (uint256, uint256, string, uint256, string)\r\n            );\r\n            _srcAmount = srcAmount;\r\n        }\r\n        to.transfer(_srcAmount);\r\n    }\r\n\r\n    /// @notice Withdrawal of abnormal cross-chain assets\r\n    function takeOut(string memory crossTxNo, address payable to) public {\r\n        _CrossTxObj memory crossTxObj = _CrossTxObject[\r\n            keccak256(abi.encodePacked(crossTxNo))\r\n        ];\r\n        require(crossTxObj.Origin == TxOriginEnum.SRC, \"Not src\");\r\n        require(\r\n            crossTxObj.Result == TxResultEnum.ACK_TIMEOUT ||\r\n                crossTxObj.Result == TxResultEnum.ACK_FAIL,\r\n            \"Result is not timeout or fail\"\r\n        );\r\n        string memory str = addressToString(msg.sender);\r\n        require(\r\n            keccak256(abi.encodePacked(str)) ==\r\n                keccak256(abi.encodePacked(crossTxObj.SrcBid)),\r\n            \"Not your asset\"\r\n        );\r\n        require(\r\n            crossTxObj.Refunded == TxRefundedEnum.TODO,\r\n            \"The asset has been returned\"\r\n        );\r\n\r\n        if (crossTxObj.TxType == 0) {\r\n            takeOutgas(crossTxObj.Payload, address(this), to);\r\n        } else if (crossTxObj.TxType == 1) {\r\n            takeOutSgas(crossTxObj.Payload, to);\r\n        } else if (crossTxObj.TxType == 2) {\r\n            takeOutCall(crossTxObj.Payload, to);\r\n        }\r\n\r\n        crossTxObj.Refunded = TxRefundedEnum.REFUNDED;\r\n        _CrossTxObject[keccak256(abi.encodePacked(crossTxNo))] = crossTxObj;\r\n\r\n        emit takeOutEvent(\"takeOut\", to);\r\n    }\r\n\r\n    /// @notice Transfer main chain points in subchain\r\n    function transfer(address to, uint256 value) public {\r\n        delegateAdditional();\r\n    }\r\n\r\n    /// @notice Query cross-chain transaction information\r\n    function getCrossTx(string memory crossTxNo)\r\n        public\r\n        view\r\n        returns (\r\n            bytes memory,\r\n            bytes memory,\r\n            TxResultEnum,\r\n            TxRefundedEnum,\r\n            TxOriginEnum,\r\n            bytes memory,\r\n            bytes memory,\r\n            bytes memory\r\n        )\r\n    {\r\n        _CrossTxObj memory crossObj = _CrossTxObject[\r\n            keccak256(abi.encodePacked(crossTxNo))\r\n        ];\r\n\r\n        bytes memory basicInfo = abi.encode(\r\n            crossObj.SrcChainCode,\r\n            crossObj.DestChainCode,\r\n            crossObj.SrcBid,\r\n            crossObj.DestBid,\r\n            uint256(crossObj.TxType)\r\n        );\r\n        bytes memory extensionInfo = abi.encode(\r\n            crossObj.Remark,\r\n            crossObj.Extension,\r\n            crossObj.Version\r\n        );\r\n        bytes memory sendProof = abi.encode(\r\n            crossObj.SendProofs.LedgerSeq,\r\n            crossObj.SendProofs.TxHash,\r\n            crossObj.SendProofs.verifieraddr\r\n        );\r\n        bytes memory ackProof = abi.encode(\r\n            crossObj.AckProofs.LedgerSeq,\r\n            crossObj.AckProofs.TxHash,\r\n            crossObj.AckProofs.verifieraddr\r\n        );\r\n\r\n        return (\r\n            basicInfo,\r\n            crossObj.Payload,\r\n            crossObj.Result,\r\n            crossObj.Refunded,\r\n            crossObj.Origin,\r\n            sendProof,\r\n            ackProof,\r\n            extensionInfo\r\n        );\r\n    }\r\n\r\n    /// @notice Query main chain points balance\r\n    function balanceOf(address addr) public view returns (uint256) {\r\n        return _MainAsset[keccak256(abi.encodePacked(_MainChainCode, addr))];\r\n    }\r\n\r\n    /// @notice Query contract version information\r\n    function getVersion() public view returns (string memory) {\r\n        return _Version;\r\n    }\r\n\r\n    /// @notice The address type is converted to string\r\n    function addressToString(address account)\r\n        internal\r\n        pure\r\n        returns (string memory)\r\n    {\r\n        bytes memory temp = abi.encodePacked(account);\r\n        bytes memory alphabet = \"0123456789abcdef\";\r\n\r\n        bytes memory str = new bytes(2 + temp.length * 2);\r\n        str[0] = \"0\";\r\n        str[1] = \"x\";\r\n        for (uint256 i = 0; i < temp.length; i++) {\r\n            str[2 + i * 2] = alphabet[uint256(uint8(temp[i] >> 4))];\r\n            str[3 + i * 2] = alphabet[uint256(uint8(temp[i] & 0x0f))];\r\n        }\r\n        return string(str);\r\n    }\r\n\r\n    /// @notice The bytes32 type is converted to string\r\n    function bytes32ToString(bytes32 value)\r\n        internal\r\n        pure\r\n        returns (string memory)\r\n    {\r\n        bytes memory temp = abi.encodePacked(value);\r\n        bytes memory alphabet = \"0123456789abcdef\";\r\n\r\n        bytes memory str = new bytes(2 + temp.length * 2);\r\n\r\n        for (uint256 i = 0; i < temp.length; i++) {\r\n            str[0 + i * 2] = alphabet[uint256(uint8(temp[i] >> 4))];\r\n            str[1 + i * 2] = alphabet[uint256(uint8(temp[i] & 0x0f))];\r\n        }\r\n        return string(str);\r\n    }\r\n\r\n    /// @notice Contract delegatecall\r\n    function delegateAdditional() internal {\r\n        address _target = address(_CrossChainContractAdditional);\r\n        assembly {\r\n            // The pointer to the free memory slot\r\n            let ptr := mload(0x40)\r\n            // Copy function signature and arguments from calldata at zero position into memory at pointer position\r\n            calldatacopy(ptr, 0x0, calldatasize())\r\n            // Delegatecall method of the implementation contract, returns 0 on error\r\n            let result := delegatecall(\r\n                gas(),\r\n                _target,\r\n                ptr,\r\n                calldatasize(),\r\n                0x0,\r\n                0\r\n            )\r\n            // Get the size of the last return data\r\n            let size := returndatasize()\r\n            // Copy the size length of bytes from return data at zero position to pointer position\r\n            returndatacopy(ptr, 0x0, size)\r\n\r\n            // Depending on result value\r\n            switch result\r\n            case 0 {\r\n                // End execution and revert state changes\r\n                revert(ptr, size)\r\n            }\r\n            default {\r\n                // Return data with length of size at pointers position\r\n                return(ptr, size)\r\n            }\r\n        }\r\n    }\r\n}\r\n",
  "sourcePath": "C:\\bif\\cross-contract-solidity\\contracts\\CrossChainContract.sol",
  "compiler": {
    "name": "solc",
    "version": "0.7.0+commit.9e61f92b.Emscripten.clang"
  },
  "schemaVersion": "3.4.3",
  "updatedAt": "2021-09-16T08:23:36.495Z",
  "networkType": "ethereum",
  "devdoc": {
    "kind": "dev",
    "methods": {},
    "title": "Cross-chain main contract",
    "version": 1
  },
  "userdoc": {
    "events": {
      "AssetBurnEvent(string,address,uint256)": {
        "notice": "Event emitted when the main chain points are destroyed"
      },
      "AssetMintEvent(string,address,address,uint256)": {
        "notice": "Event emitted when the main chain points are cast"
      },
      "approveEvent(string,uint256)": {
        "notice": "Event emitted when the main chain points authorized transfer"
      },
      "sendAckedEvent(string,string,uint8)": {
        "notice": "Event emitted when gateway submitted cross-chain transaction confirmation"
      },
      "sendTxEvent(string,string,uint8)": {
        "notice": "Event emitted when gateway submitted cross-chain transaction"
      },
      "setChainCodeEvent(string,string)": {
        "notice": "Event emitted when chaincode is set"
      },
      "setGatewayEvent(string,address)": {
        "notice": "Event emitted when gateway is set"
      },
      "startTxEvent(string,string,uint8)": {
        "notice": "Event emitted when user sent cross-chain transaction"
      },
      "takeOutEvent(string,address)": {
        "notice": "Event emitted when assets withdrawn"
      },
      "transferEvent(string,uint256)": {
        "notice": "Event emitted when the main chain points is transferred"
      }
    },
    "kind": "user",
    "methods": {
      "approve(address,address,uint256)": {
        "notice": "Number of points that can be transferred by authorization"
      },
      "balanceOf(address)": {
        "notice": "Query main chain points balance"
      },
      "getAllowance(address,address)": {
        "notice": "Query the number of authorized points"
      },
      "getCrossTx(string)": {
        "notice": "Query cross-chain transaction information"
      },
      "getVersion()": {
        "notice": "Query contract version information"
      },
      "initialize(address)": {
        "notice": "Cross-chain contract initialization. Can be executed once."
      },
      "sendAcked(string,uint8,string,bytes)": {
        "notice": "Gateway node submits cross-chain confirmation transaction"
      },
      "sendTx(string,address,string,string,uint8,string,bytes,string,string,string,bytes)": {
        "notice": "Gateway node submits cross-chain transaction"
      },
      "setChainCode(string)": {
        "notice": "Set subchain AC code. Can only be executed by the contract owner."
      },
      "setGateway(address)": {
        "notice": "Set subchain cross-chain gateway. Can only be executed by the contract owner."
      },
      "startTx(address,string,string,string,uint8,bytes,string,string,string)": {
        "notice": "Users of the subchain initiate cross-chain transactions"
      },
      "takeOut(string,address)": {
        "notice": "Withdrawal of abnormal cross-chain assets"
      },
      "transfer(address,uint256)": {
        "notice": "Transfer main chain points in subchain"
      }
    },
    "version": 1
  }
}