{
  "contractName": "CrossChainContractAdditional",
  "abi": [
    {
      "anonymous": false,
      "inputs": [
        {
          "indexed": false,
          "internalType": "string",
          "name": "operation",
          "type": "string"
        },
        {
          "indexed": false,
          "internalType": "address",
          "name": "from",
          "type": "address"
        },
        {
          "indexed": false,
          "internalType": "uint256",
          "name": "value",
          "type": "uint256"
        }
      ],
      "name": "AssetBurnEvent",
      "type": "event"
    },
    {
      "anonymous": false,
      "inputs": [
        {
          "indexed": false,
          "internalType": "string",
          "name": "operation",
          "type": "string"
        },
        {
          "indexed": false,
          "internalType": "address",
          "name": "from",
          "type": "address"
        },
        {
          "indexed": false,
          "internalType": "address",
          "name": "to",
          "type": "address"
        },
        {
          "indexed": false,
          "internalType": "uint256",
          "name": "value",
          "type": "uint256"
        }
      ],
      "name": "AssetMintEvent",
      "type": "event"
    },
    {
      "anonymous": false,
      "inputs": [
        {
          "indexed": false,
          "internalType": "string",
          "name": "operation",
          "type": "string"
        },
        {
          "indexed": false,
          "internalType": "uint256",
          "name": "value",
          "type": "uint256"
        }
      ],
      "name": "approveEvent",
      "type": "event"
    },
    {
      "anonymous": false,
      "inputs": [
        {
          "indexed": false,
          "internalType": "string",
          "name": "operation",
          "type": "string"
        },
        {
          "indexed": false,
          "internalType": "string",
          "name": "cross_TxNo",
          "type": "string"
        },
        {
          "indexed": false,
          "internalType": "uint8",
          "name": "txType",
          "type": "uint8"
        }
      ],
      "name": "sendAckedEvent",
      "type": "event"
    },
    {
      "anonymous": false,
      "inputs": [
        {
          "indexed": false,
          "internalType": "string",
          "name": "operation",
          "type": "string"
        },
        {
          "indexed": false,
          "internalType": "string",
          "name": "cross_TxNo",
          "type": "string"
        },
        {
          "indexed": false,
          "internalType": "uint8",
          "name": "txType",
          "type": "uint8"
        }
      ],
      "name": "sendTxEvent",
      "type": "event"
    },
    {
      "anonymous": false,
      "inputs": [
        {
          "indexed": false,
          "internalType": "string",
          "name": "operation",
          "type": "string"
        },
        {
          "indexed": false,
          "internalType": "string",
          "name": "chain_Code",
          "type": "string"
        }
      ],
      "name": "setChainCodeEvent",
      "type": "event"
    },
    {
      "anonymous": false,
      "inputs": [
        {
          "indexed": false,
          "internalType": "string",
          "name": "operation",
          "type": "string"
        },
        {
          "indexed": false,
          "internalType": "address",
          "name": "gateway_Address",
          "type": "address"
        }
      ],
      "name": "setGatewayEvent",
      "type": "event"
    },
    {
      "anonymous": false,
      "inputs": [
        {
          "indexed": false,
          "internalType": "string",
          "name": "operation",
          "type": "string"
        },
        {
          "indexed": false,
          "internalType": "string",
          "name": "cross_TxNo",
          "type": "string"
        },
        {
          "indexed": false,
          "internalType": "uint8",
          "name": "txType",
          "type": "uint8"
        }
      ],
      "name": "startTxEvent",
      "type": "event"
    },
    {
      "anonymous": false,
      "inputs": [
        {
          "indexed": false,
          "internalType": "string",
          "name": "operation",
          "type": "string"
        },
        {
          "indexed": false,
          "internalType": "address",
          "name": "to",
          "type": "address"
        }
      ],
      "name": "takeOutEvent",
      "type": "event"
    },
    {
      "anonymous": false,
      "inputs": [
        {
          "indexed": false,
          "internalType": "string",
          "name": "operation",
          "type": "string"
        },
        {
          "indexed": false,
          "internalType": "uint256",
          "name": "value",
          "type": "uint256"
        }
      ],
      "name": "transferEvent",
      "type": "event"
    },
    {
      "inputs": [
        {
          "internalType": "string",
          "name": "chainCode",
          "type": "string"
        }
      ],
      "name": "setChainCode",
      "outputs": [],
      "stateMutability": "nonpayable",
      "type": "function"
    },
    {
      "inputs": [
        {
          "internalType": "address",
          "name": "gatewayAddress",
          "type": "address"
        }
      ],
      "name": "setGateway",
      "outputs": [],
      "stateMutability": "nonpayable",
      "type": "function"
    },
    {
      "inputs": [
        {
          "internalType": "address",
          "name": "from",
          "type": "address"
        },
        {
          "internalType": "address",
          "name": "to",
          "type": "address"
        },
        {
          "internalType": "uint256",
          "name": "value",
          "type": "uint256"
        }
      ],
      "name": "approve",
      "outputs": [],
      "stateMutability": "nonpayable",
      "type": "function"
    },
    {
      "inputs": [
        {
          "internalType": "address",
          "name": "to",
          "type": "address"
        },
        {
          "internalType": "uint256",
          "name": "value",
          "type": "uint256"
        }
      ],
      "name": "transfer",
      "outputs": [],
      "stateMutability": "nonpayable",
      "type": "function"
    }
  ],
  "bytecode": "0x608060405234801561001057600080fd5b506108e0806100206000396000f3fe608060405234801561001057600080fd5b506004361061004c5760003560e01c806390646b4a14610051578063a9059cbb14610066578063e1f21c6714610079578063eca33be71461008c575b600080fd5b61006461005f366004610530565b61009f565b005b610064610074366004610592565b610161565b610064610087366004610552565b61033e565b61006461009a3660046105bc565b610416565b6001600160a01b0381166100ce5760405162461bcd60e51b81526004016100c5906106cd565b60405180910390fd5b600380546001810182556000919091527fc2575a0e9e593c00f959f8c92f12db2869c3395a3b0502d05e2516446f71f85b01805473ffffffffffffffffffffffffffffffffffffffff19166001600160a01b0383161790556040517f50634bb0a08177296d39814e9009b52e5ada2102a905124a5c94f3b33009445a906101569083906107e1565b60405180910390a150565b6001600160a01b0382166101875760405162461bcd60e51b81526004016100c5906106cd565b600081116101a75760405162461bcd60e51b81526004016100c590610764565b6001600160a01b0382163314156101d05760405162461bcd60e51b81526004016100c590610704565b600060066000600954336040516020016101eb929190610650565b6040516020818303038152906040528051906020012081526020019081526020016000205490508181116102315760405162461bcd60e51b81526004016100c590610670565b6000600660006009548660405160200161024c929190610650565b6040516020818303038152906040528051906020012081526020019081526020016000205490508281019050806006600060095487604051602001610292929190610650565b6040516020818303038152906040528051906020012081526020019081526020016000208190555082820391508160066000600954336040516020016102d9929190610650565b604051602081830303815290604052805190602001208152602001908152602001600020819055507f08457ab1ab7a12d0413e675f4079d4497cd761a9ed6f09e1b3280a7a717c87f4836040516103309190610868565b60405180910390a150505050565b6001600160a01b0383163314801561035e57506001600160a01b03821615155b61037a5760405162461bcd60e51b81526004016100c5906106cd565b6000811161039a5760405162461bcd60e51b81526004016100c590610764565b806007600085856040516020016103b2929190610629565b604051602081830303815290604052805190602001208152602001908152602001600020819055507fed6f0b4c8aa2f7d30871a60708a0e3d94c007a0ffa84adc4ed6f957cc34f3f1181604051610409919061073b565b60405180910390a1505050565b600481146104365760405162461bcd60e51b81526004016100c59061079b565b61044260028383610480565b507ffc6737f7509cea37de236c12350da440158d0a0a9e1b18597001f6c18d40b9498282604051610474929190610816565b60405180910390a15050565b828054600181600116156101000203166002900490600052602060002090601f016020900481019282601f106104c15782800160ff198235161785556104ee565b828001600101855582156104ee579182015b828111156104ee5782358255916020019190600101906104d3565b506104fa9291506104fe565b5090565b5b808211156104fa57600081556001016104ff565b80356001600160a01b038116811461052a57600080fd5b92915050565b600060208284031215610541578081fd5b61054b8383610513565b9392505050565b600080600060608486031215610566578182fd5b833561057181610892565b9250602084013561058181610892565b929592945050506040919091013590565b600080604083850312156105a4578182fd5b6105ae8484610513565b946020939093013593505050565b600080602083850312156105ce578182fd5b823567ffffffffffffffff808211156105e5578384fd5b818501915085601f8301126105f8578384fd5b813581811115610606578485fd5b866020828501011115610617578485fd5b60209290920196919550909350505050565b6bffffffffffffffffffffffff19606093841b811682529190921b16601482015260280190565b91825260601b6bffffffffffffffffffffffff1916602082015260340190565b60208082526033908201527f546865206d61696e2d636861696e20706f696e7473206f66207468652061636360408201527f6f756e7420617265206e6f7420656e6f75676800000000000000000000000000606082015260800190565b6020808252600f908201527f496e76616c696420616464726573730000000000000000000000000000000000604082015260600190565b6020808252601b908201527f5472616e736665722061737365747320746f20796f757273656c660000000000604082015260600190565b604080825260079082015266617070726f766560c81b6060820152602081019190915260800190565b6020808252601c908201527f56616c7565206d7573742062652067726561746572207468616e203000000000604082015260600190565b60208082526026908201527f54686520636861726163746572206c656e677468206f6620636861696e636f6460408201526519481a5cc80d60d21b606082015260800190565b6040808252600a90820152697365744761746577617960b01b60608201526001600160a01b0391909116602082015260800190565b600060408252600c60408301526b736574436861696e436f646560a01b606083015260806020830152826080830152828460a084013781830160a090810191909152601f909201601f19160101919050565b6040808252600890820152673a3930b739b332b960c11b6060820152602081019190915260800190565b6001600160a01b03811681146108a757600080fd5b5056fea264697066735822122069ef1dd06edaa1c5bfd89a3aafd349a2e26b37d8896d93c628678be6921e998964736f6c63430007000033",
  "immutableReferences": {},
  "source": "// SPDX-License-Identifier: MIT\r\npragma solidity >=0.4.22 <0.8.0;\r\n\r\npragma experimental ABIEncoderV2;\r\n\r\nimport \"./Storage.sol\";\r\n\r\n/// @title Cross-chain additional main contract\r\ncontract CrossChainContractAdditional is Storage {\r\n    /// @notice Set subchain AC code. Can only be executed by the contract owner.\r\n    function setChainCode(string calldata chainCode) external {\r\n        require(\r\n            bytes(chainCode).length == 4,\r\n            \"The character length of chaincode is 4\"\r\n        );\r\n        _ChainCode = chainCode;\r\n\r\n        emit setChainCodeEvent(\"setChainCode\", chainCode);\r\n    }\r\n\r\n    /// @notice Set subchain cross-chain gateway. Can only be executed by the contract owner.\r\n    function setGateway(address gatewayAddress) external {\r\n        require(gatewayAddress != address(0x0), \"Invalid address\");\r\n        _GatewayList.push(gatewayAddress);\r\n\r\n        emit setGatewayEvent(\"setGateway\", gatewayAddress);\r\n    }\r\n\r\n    /// @notice Number of points that can be transferred by authorization\r\n    function approve(\r\n        address from,\r\n        address to,\r\n        uint256 value\r\n    ) external {\r\n        require(from == msg.sender && to != address(0x0), \"Invalid address\");\r\n        require(value > 0, \"Value must be greater than 0\");\r\n        _AllowValue[keccak256(abi.encodePacked(from, to))] = value;\r\n\r\n        emit approveEvent(\"approve\", value);\r\n    }\r\n\r\n    /// @notice Transfer main chain points in subchain\r\n    function transfer(address to, uint256 value) external {\r\n        require(to != address(0x0), \"Invalid address\");\r\n        require(value > 0, \"Value must be greater than 0\");\r\n        require(to != msg.sender, \"Transfer assets to yourself\");\r\n\r\n        uint256 senderValue = _MainAsset[\r\n            keccak256(abi.encodePacked(_MainChainCode, msg.sender))\r\n        ];\r\n        require(\r\n            senderValue > value,\r\n            \"The main-chain points of the account are not enough\"\r\n        );\r\n\r\n        uint256 toValue = _MainAsset[\r\n            keccak256(abi.encodePacked(_MainChainCode, to))\r\n        ];\r\n        toValue = toValue + value;\r\n        _MainAsset[keccak256(abi.encodePacked(_MainChainCode, to))] = toValue;\r\n\r\n        senderValue = senderValue - value;\r\n        _MainAsset[\r\n            keccak256(abi.encodePacked(_MainChainCode, msg.sender))\r\n        ] = senderValue;\r\n\r\n        emit transferEvent(\"transfer\", value);\r\n    }\r\n}\r\n",
  "sourcePath": "C:\\bif\\cross-contract-solidity\\contracts\\CrossChainContractAdditional.sol",
  "compiler": {
    "name": "solc",
    "version": "0.7.0+commit.9e61f92b.Emscripten.clang"
  },
  "schemaVersion": "3.4.3",
  "updatedAt": "2021-09-16T08:23:36.589Z",
  "networkType": "ethereum",
  "devdoc": {
    "kind": "dev",
    "methods": {},
    "title": "Cross-chain additional main contract",
    "version": 1
  },
  "userdoc": {
    "events": {
      "AssetBurnEvent(string,address,uint256)": {
        "notice": "Event emitted when the main chain points are destroyed"
      },
      "AssetMintEvent(string,address,address,uint256)": {
        "notice": "Event emitted when the main chain points are cast"
      },
      "approveEvent(string,uint256)": {
        "notice": "Event emitted when the main chain points authorized transfer"
      },
      "sendAckedEvent(string,string,uint8)": {
        "notice": "Event emitted when gateway submitted cross-chain transaction confirmation"
      },
      "sendTxEvent(string,string,uint8)": {
        "notice": "Event emitted when gateway submitted cross-chain transaction"
      },
      "setChainCodeEvent(string,string)": {
        "notice": "Event emitted when chaincode is set"
      },
      "setGatewayEvent(string,address)": {
        "notice": "Event emitted when gateway is set"
      },
      "startTxEvent(string,string,uint8)": {
        "notice": "Event emitted when user sent cross-chain transaction"
      },
      "takeOutEvent(string,address)": {
        "notice": "Event emitted when assets withdrawn"
      },
      "transferEvent(string,uint256)": {
        "notice": "Event emitted when the main chain points is transferred"
      }
    },
    "kind": "user",
    "methods": {
      "approve(address,address,uint256)": {
        "notice": "Number of points that can be transferred by authorization"
      },
      "setChainCode(string)": {
        "notice": "Set subchain AC code. Can only be executed by the contract owner."
      },
      "setGateway(address)": {
        "notice": "Set subchain cross-chain gateway. Can only be executed by the contract owner."
      },
      "transfer(address,uint256)": {
        "notice": "Transfer main chain points in subchain"
      }
    },
    "version": 1
  }
}