{
  "contractName": "Get",
  "abi": [
    {
      "inputs": [
        {
          "internalType": "address",
          "name": "addr",
          "type": "address"
        }
      ],
      "name": "getBalance",
      "outputs": [
        {
          "internalType": "uint256",
          "name": "",
          "type": "uint256"
        }
      ],
      "stateMutability": "view",
      "type": "function"
    }
  ],
  "bytecode": "0x6080604052348015600f57600080fd5b5060bf8061001e6000396000f3fe6080604052348015600f57600080fd5b506004361060285760003560e01c8063f8b2cb4f14602d575b600080fd5b605d60048036036020811015604157600080fd5b503573ffffffffffffffffffffffffffffffffffffffff16606f565b60408051918252519081900360200190f35b73ffffffffffffffffffffffffffffffffffffffff16319056fea26469706673582212207f6e2877b46be96c0b7e2eb8f0bacc1c2295fcc73dd99c6dbd494b392efc0a0d64736f6c63430007000033",
  "immutableReferences": {},
  "source": "// SPDX-License-Identifier: MIT\r\npragma solidity >=0.4.22 <0.8.0;\r\n\r\n/// @title contract call test\r\ncontract Set {\r\n    uint256 public value;\r\n\r\n    function set(uint256 val) public {\r\n        value = val;\r\n    }\r\n}\r\n\r\ncontract Get {\r\n    \r\n    function getBalance(address addr) public view returns(uint256) {\r\n        return addr.balance;\r\n    }\r\n}\r\n",
  "sourcePath": "C:\\bif\\cross-contract-solidity\\contracts\\contractCallTest.sol",
  "compiler": {
    "name": "solc",
    "version": "0.7.0+commit.9e61f92b.Emscripten.clang"
  },
  "schemaVersion": "3.4.3",
  "updatedAt": "2021-09-16T08:23:33.547Z",
  "devdoc": {
    "kind": "dev",
    "methods": {},
    "version": 1
  },
  "userdoc": {
    "kind": "user",
    "methods": {},
    "version": 1
  }
}